{
  "contractName": "AABoard",
  "abi": [
    {
      "constant": true,
      "inputs": [
        {
          "name": "interfaceId",
          "type": "bytes4"
        }
      ],
      "name": "supportsInterface",
      "outputs": [
        {
          "name": "",
          "type": "bool"
        }
      ],
      "payable": false,
      "stateMutability": "view",
      "type": "function"
    },
    {
      "constant": true,
      "inputs": [],
      "name": "name",
      "outputs": [
        {
          "name": "",
          "type": "string"
        }
      ],
      "payable": false,
      "stateMutability": "view",
      "type": "function"
    },
    {
      "constant": true,
      "inputs": [
        {
          "name": "tokenId",
          "type": "uint256"
        }
      ],
      "name": "getApproved",
      "outputs": [
        {
          "name": "",
          "type": "address"
        }
      ],
      "payable": false,
      "stateMutability": "view",
      "type": "function"
    },
    {
      "constant": false,
      "inputs": [
        {
          "name": "to",
          "type": "address"
        },
        {
          "name": "tokenId",
          "type": "uint256"
        }
      ],
      "name": "approve",
      "outputs": [],
      "payable": false,
      "stateMutability": "nonpayable",
      "type": "function"
    },
    {
      "constant": true,
      "inputs": [],
      "name": "totalSupply",
      "outputs": [
        {
          "name": "",
          "type": "uint256"
        }
      ],
      "payable": false,
      "stateMutability": "view",
      "type": "function"
    },
    {
      "constant": false,
      "inputs": [
        {
          "name": "from",
          "type": "address"
        },
        {
          "name": "to",
          "type": "address"
        },
        {
          "name": "tokenId",
          "type": "uint256"
        }
      ],
      "name": "transferFrom",
      "outputs": [],
      "payable": false,
      "stateMutability": "nonpayable",
      "type": "function"
    },
    {
      "constant": true,
      "inputs": [
        {
          "name": "adId",
          "type": "uint256"
        }
      ],
      "name": "depositAbleToWithdraw",
      "outputs": [
        {
          "name": "",
          "type": "uint256"
        }
      ],
      "payable": false,
      "stateMutability": "view",
      "type": "function"
    },
    {
      "constant": true,
      "inputs": [
        {
          "name": "adId",
          "type": "uint256"
        }
      ],
      "name": "dueDate",
      "outputs": [
        {
          "name": "",
          "type": "uint256"
        }
      ],
      "payable": false,
      "stateMutability": "view",
      "type": "function"
    },
    {
      "constant": false,
      "inputs": [
        {
          "name": "adId",
          "type": "uint256"
        },
        {
          "name": "rate",
          "type": "uint256"
        }
      ],
      "name": "setTaxRate",
      "outputs": [],
      "payable": false,
      "stateMutability": "nonpayable",
      "type": "function"
    },
    {
      "constant": true,
      "inputs": [
        {
          "name": "owner",
          "type": "address"
        },
        {
          "name": "index",
          "type": "uint256"
        }
      ],
      "name": "tokenOfOwnerByIndex",
      "outputs": [
        {
          "name": "",
          "type": "uint256"
        }
      ],
      "payable": false,
      "stateMutability": "view",
      "type": "function"
    },
    {
      "constant": false,
      "inputs": [],
      "name": "unpause",
      "outputs": [],
      "payable": false,
      "stateMutability": "nonpayable",
      "type": "function"
    },
    {
      "constant": false,
      "inputs": [
        {
          "name": "adId",
          "type": "uint256"
        },
        {
          "name": "rate",
          "type": "uint256"
        }
      ],
      "name": "setAdministrationRate",
      "outputs": [],
      "payable": false,
      "stateMutability": "nonpayable",
      "type": "function"
    },
    {
      "constant": false,
      "inputs": [
        {
          "name": "from",
          "type": "address"
        },
        {
          "name": "to",
          "type": "address"
        },
        {
          "name": "tokenId",
          "type": "uint256"
        }
      ],
      "name": "safeTransferFrom",
      "outputs": [],
      "payable": false,
      "stateMutability": "nonpayable",
      "type": "function"
    },
    {
      "constant": true,
      "inputs": [
        {
          "name": "owner",
          "type": "address"
        }
      ],
      "name": "getAdBoardIds",
      "outputs": [
        {
          "name": "",
          "type": "uint256[]"
        }
      ],
      "payable": false,
      "stateMutability": "view",
      "type": "function"
    },
    {
      "constant": true,
      "inputs": [
        {
          "name": "account",
          "type": "address"
        }
      ],
      "name": "isPauser",
      "outputs": [
        {
          "name": "",
          "type": "bool"
        }
      ],
      "payable": false,
      "stateMutability": "view",
      "type": "function"
    },
    {
      "constant": true,
      "inputs": [
        {
          "name": "",
          "type": "uint256"
        }
      ],
      "name": "taxIncome",
      "outputs": [
        {
          "name": "",
          "type": "uint256"
        }
      ],
      "payable": false,
      "stateMutability": "view",
      "type": "function"
    },
    {
      "constant": true,
      "inputs": [
        {
          "name": "index",
          "type": "uint256"
        }
      ],
      "name": "tokenByIndex",
      "outputs": [
        {
          "name": "",
          "type": "uint256"
        }
      ],
      "payable": false,
      "stateMutability": "view",
      "type": "function"
    },
    {
      "constant": true,
      "inputs": [],
      "name": "paused",
      "outputs": [
        {
          "name": "",
          "type": "bool"
        }
      ],
      "payable": false,
      "stateMutability": "view",
      "type": "function"
    },
    {
      "constant": true,
      "inputs": [],
      "name": "allTaxIncome",
      "outputs": [
        {
          "name": "",
          "type": "uint256"
        }
      ],
      "payable": false,
      "stateMutability": "view",
      "type": "function"
    },
    {
      "constant": true,
      "inputs": [
        {
          "name": "tokenId",
          "type": "uint256"
        }
      ],
      "name": "ownerOf",
      "outputs": [
        {
          "name": "",
          "type": "address"
        }
      ],
      "payable": false,
      "stateMutability": "view",
      "type": "function"
    },
    {
      "constant": false,
      "inputs": [],
      "name": "renouncePauser",
      "outputs": [],
      "payable": false,
      "stateMutability": "nonpayable",
      "type": "function"
    },
    {
      "constant": true,
      "inputs": [
        {
          "name": "owner",
          "type": "address"
        }
      ],
      "name": "balanceOf",
      "outputs": [
        {
          "name": "",
          "type": "uint256"
        }
      ],
      "payable": false,
      "stateMutability": "view",
      "type": "function"
    },
    {
      "constant": false,
      "inputs": [
        {
          "name": "account",
          "type": "address"
        }
      ],
      "name": "addPauser",
      "outputs": [],
      "payable": false,
      "stateMutability": "nonpayable",
      "type": "function"
    },
    {
      "constant": false,
      "inputs": [],
      "name": "pause",
      "outputs": [],
      "payable": false,
      "stateMutability": "nonpayable",
      "type": "function"
    },
    {
      "constant": true,
      "inputs": [],
      "name": "symbol",
      "outputs": [
        {
          "name": "",
          "type": "string"
        }
      ],
      "payable": false,
      "stateMutability": "view",
      "type": "function"
    },
    {
      "constant": true,
      "inputs": [
        {
          "name": "adId",
          "type": "uint256"
        }
      ],
      "name": "getAdBoardData",
      "outputs": [
        {
          "name": "parentId",
          "type": "uint256"
        },
        {
          "name": "price",
          "type": "uint256"
        },
        {
          "name": "deposit",
          "type": "uint256"
        },
        {
          "name": "lastTaxPayTimestamp",
          "type": "uint256"
        },
        {
          "name": "content",
          "type": "string"
        },
        {
          "name": "taxRate",
          "type": "uint256"
        }
      ],
      "payable": false,
      "stateMutability": "view",
      "type": "function"
    },
    {
      "constant": false,
      "inputs": [
        {
          "name": "to",
          "type": "address"
        },
        {
          "name": "approved",
          "type": "bool"
        }
      ],
      "name": "setApprovalForAll",
      "outputs": [],
      "payable": false,
      "stateMutability": "nonpayable",
      "type": "function"
    },
    {
      "constant": false,
      "inputs": [
        {
          "name": "adId",
          "type": "uint256"
        }
      ],
      "name": "addDeposit",
      "outputs": [],
      "payable": true,
      "stateMutability": "payable",
      "type": "function"
    },
    {
      "constant": false,
      "inputs": [
        {
          "name": "adId",
          "type": "uint256"
        },
        {
          "name": "rate",
          "type": "uint256"
        }
      ],
      "name": "setCopyrightRate",
      "outputs": [],
      "payable": false,
      "stateMutability": "nonpayable",
      "type": "function"
    },
    {
      "constant": false,
      "inputs": [
        {
          "name": "adId",
          "type": "uint256"
        },
        {
          "name": "price",
          "type": "uint256"
        }
      ],
      "name": "changePrice",
      "outputs": [],
      "payable": false,
      "stateMutability": "nonpayable",
      "type": "function"
    },
    {
      "constant": false,
      "inputs": [
        {
          "name": "from",
          "type": "address"
        },
        {
          "name": "to",
          "type": "address"
        },
        {
          "name": "tokenId",
          "type": "uint256"
        },
        {
          "name": "_data",
          "type": "bytes"
        }
      ],
      "name": "safeTransferFrom",
      "outputs": [],
      "payable": false,
      "stateMutability": "nonpayable",
      "type": "function"
    },
    {
      "constant": false,
      "inputs": [
        {
          "name": "adId",
          "type": "uint256"
        },
        {
          "name": "amount",
          "type": "uint256"
        }
      ],
      "name": "withdrawDeposit",
      "outputs": [],
      "payable": false,
      "stateMutability": "nonpayable",
      "type": "function"
    },
    {
      "constant": false,
      "inputs": [
        {
          "name": "adId",
          "type": "uint256"
        },
        {
          "name": "content",
          "type": "string"
        }
      ],
      "name": "changeContent",
      "outputs": [],
      "payable": false,
      "stateMutability": "nonpayable",
      "type": "function"
    },
    {
      "constant": true,
      "inputs": [
        {
          "name": "tokenId",
          "type": "uint256"
        }
      ],
      "name": "tokenURI",
      "outputs": [
        {
          "name": "",
          "type": "string"
        }
      ],
      "payable": false,
      "stateMutability": "view",
      "type": "function"
    },
    {
      "constant": true,
      "inputs": [
        {
          "name": "owner",
          "type": "address"
        },
        {
          "name": "operator",
          "type": "address"
        }
      ],
      "name": "isApprovedForAll",
      "outputs": [
        {
          "name": "",
          "type": "bool"
        }
      ],
      "payable": false,
      "stateMutability": "view",
      "type": "function"
    },
    {
      "constant": false,
      "inputs": [
        {
          "name": "price",
          "type": "uint256"
        },
        {
          "name": "parentId",
          "type": "uint256"
        },
        {
          "name": "content",
          "type": "string"
        }
      ],
      "name": "createAdBoard",
      "outputs": [],
      "payable": true,
      "stateMutability": "payable",
      "type": "function"
    },
    {
      "constant": false,
      "inputs": [
        {
          "name": "adId",
          "type": "uint256"
        },
        {
          "name": "price",
          "type": "uint256"
        },
        {
          "name": "content",
          "type": "string"
        }
      ],
      "name": "buyAdBoard",
      "outputs": [],
      "payable": true,
      "stateMutability": "payable",
      "type": "function"
    },
    {
      "constant": false,
      "inputs": [],
      "name": "withdrawTaxIncome",
      "outputs": [],
      "payable": false,
      "stateMutability": "nonpayable",
      "type": "function"
    },
    {
      "constant": true,
      "inputs": [],
      "name": "administrator",
      "outputs": [
        {
          "name": "",
          "type": "address"
        }
      ],
      "payable": false,
      "stateMutability": "view",
      "type": "function"
    },
    {
      "inputs": [
        {
          "name": "name",
          "type": "string"
        },
        {
          "name": "symbol",
          "type": "string"
        }
      ],
      "payable": false,
      "stateMutability": "nonpayable",
      "type": "constructor"
    },
    {
      "payable": true,
      "stateMutability": "payable",
      "type": "fallback"
    },
    {
      "anonymous": false,
      "inputs": [
        {
          "indexed": true,
          "name": "adId",
          "type": "uint256"
        }
      ],
      "name": "BuyEvent",
      "type": "event"
    },
    {
      "anonymous": false,
      "inputs": [
        {
          "indexed": true,
          "name": "adId",
          "type": "uint256"
        }
      ],
      "name": "CreateEvent",
      "type": "event"
    },
    {
      "anonymous": false,
      "inputs": [
        {
          "indexed": true,
          "name": "adId",
          "type": "uint256"
        },
        {
          "indexed": true,
          "name": "copyrightAmount",
          "type": "uint256"
        },
        {
          "indexed": true,
          "name": "administrationAmount",
          "type": "uint256"
        }
      ],
      "name": "TaxPayEvent",
      "type": "event"
    },
    {
      "anonymous": false,
      "inputs": [
        {
          "indexed": true,
          "name": "adId",
          "type": "uint256"
        }
      ],
      "name": "ChangePriceEvent",
      "type": "event"
    },
    {
      "anonymous": false,
      "inputs": [
        {
          "indexed": true,
          "name": "adId",
          "type": "uint256"
        }
      ],
      "name": "ChangeContentEvent",
      "type": "event"
    },
    {
      "anonymous": false,
      "inputs": [
        {
          "indexed": true,
          "name": "adId",
          "type": "uint256"
        }
      ],
      "name": "AddDepositEvent",
      "type": "event"
    },
    {
      "anonymous": false,
      "inputs": [
        {
          "indexed": true,
          "name": "adId",
          "type": "uint256"
        }
      ],
      "name": "WithdrawDepositEvent",
      "type": "event"
    },
    {
      "anonymous": false,
      "inputs": [
        {
          "indexed": false,
          "name": "account",
          "type": "address"
        }
      ],
      "name": "Paused",
      "type": "event"
    },
    {
      "anonymous": false,
      "inputs": [
        {
          "indexed": false,
          "name": "account",
          "type": "address"
        }
      ],
      "name": "Unpaused",
      "type": "event"
    },
    {
      "anonymous": false,
      "inputs": [
        {
          "indexed": true,
          "name": "account",
          "type": "address"
        }
      ],
      "name": "PauserAdded",
      "type": "event"
    },
    {
      "anonymous": false,
      "inputs": [
        {
          "indexed": true,
          "name": "account",
          "type": "address"
        }
      ],
      "name": "PauserRemoved",
      "type": "event"
    },
    {
      "anonymous": false,
      "inputs": [
        {
          "indexed": true,
          "name": "from",
          "type": "address"
        },
        {
          "indexed": true,
          "name": "to",
          "type": "address"
        },
        {
          "indexed": true,
          "name": "tokenId",
          "type": "uint256"
        }
      ],
      "name": "Transfer",
      "type": "event"
    },
    {
      "anonymous": false,
      "inputs": [
        {
          "indexed": true,
          "name": "owner",
          "type": "address"
        },
        {
          "indexed": true,
          "name": "approved",
          "type": "address"
        },
        {
          "indexed": true,
          "name": "tokenId",
          "type": "uint256"
        }
      ],
      "name": "Approval",
      "type": "event"
    },
    {
      "anonymous": false,
      "inputs": [
        {
          "indexed": true,
          "name": "owner",
          "type": "address"
        },
        {
          "indexed": true,
          "name": "operator",
          "type": "address"
        },
        {
          "indexed": false,
          "name": "approved",
          "type": "bool"
        }
      ],
      "name": "ApprovalForAll",
      "type": "event"
    }
  ],
  "bytecode": "0x60806040523480156200001157600080fd5b5060405162004b0d38038062004b0d833981018060405260408110156200003757600080fd5b8101908080516401000000008111156200005057600080fd5b828101905060208101848111156200006757600080fd5b81518560018202830111640100000000821117156200008557600080fd5b50509291906020018051640100000000811115620000a257600080fd5b82810190506020810184811115620000b957600080fd5b8151856001820283011164010000000082111715620000d757600080fd5b5050929190505050818181818181620000fd6301ffc9a760e01b6200023b60201b60201c565b620001156380ac58cd60e01b6200023b60201b60201c565b6200012d63780e9d6360e01b6200023b60201b60201c565b81600a9080519060200190620001459291906200098a565b5080600b90805190602001906200015e9291906200098a565b5062000177635b5e139f60e01b6200023b60201b60201c565b505050506200018c33620002db60201b60201c565b6000600e60006101000a81548160ff021916908315150217905550505033600e60016101000a81548173ffffffffffffffffffffffffffffffffffffffff021916908373ffffffffffffffffffffffffffffffffffffffff160217905550620002336000806040518060400160405280600d81526020017f47656e6573697320426f617264000000000000000000000000000000000000008152506200033c60201b60201c565b505062000aef565b63ffffffff60e01b817bffffffffffffffffffffffffffffffffffffffffffffffffffffffff191614156200026f57600080fd5b6001806000837bffffffffffffffffffffffffffffffffffffffffffffffffffffffff19167bffffffffffffffffffffffffffffffffffffffffffffffffffffffff1916815260200190815260200160002060006101000a81548160ff02191690831515021790555050565b620002f681600d6200050b60201b620035cb1790919060201c565b8073ffffffffffffffffffffffffffffffffffffffff167f6719d08c1888103bea251a4ed56406bd0c3e69723c8a1686e017e7bbe159b6f860405160405180910390a250565b600073ffffffffffffffffffffffffffffffffffffffff163373ffffffffffffffffffffffffffffffffffffffff1614156200037757600080fd5b60008210156200038657600080fd5b6000831015620003e2576040517f08c379a000000000000000000000000000000000000000000000000000000000815260040180806020018281038252603a81526020018062004ad3603a913960400191505060405180910390fd5b620003ec62000a11565b6040518060a001604052806200040885620005c160201b60201c565b6200041557600062000417565b845b815260200160003411156200042d578562000430565b60005b81526020013481526020014281526020018381525090506000600160008390806001815401808255809150509060018203906000526020600020906005020160009091929091909150600082015181600001556020820151816001015560408201518160020155606082015181600301556080820151816004019080519060200190620004bf92919062000a40565b505050039050620004d733826200063360201b60201c565b807f875bdb53038c98213c9a6af73e45d73b77c6d55d1f9614a8c0624808373eda2c60405160405180910390a25050505050565b600073ffffffffffffffffffffffffffffffffffffffff168173ffffffffffffffffffffffffffffffffffffffff1614156200054657600080fd5b6200055882826200067160201b60201c565b156200056357600080fd5b60018260000160008373ffffffffffffffffffffffffffffffffffffffff1673ffffffffffffffffffffffffffffffffffffffff16815260200190815260200160002060006101000a81548160ff0219169083151502179055505050565b6000806002600084815260200190815260200160002060009054906101000a900473ffffffffffffffffffffffffffffffffffffffff169050600073ffffffffffffffffffffffffffffffffffffffff168173ffffffffffffffffffffffffffffffffffffffff161415915050919050565b6200064a82826200070460201b6200368a1760201c565b6200065c82826200086160201b60201c565b6200066d816200092860201b60201c565b5050565b60008073ffffffffffffffffffffffffffffffffffffffff168273ffffffffffffffffffffffffffffffffffffffff161415620006ad57600080fd5b8260000160008373ffffffffffffffffffffffffffffffffffffffff1673ffffffffffffffffffffffffffffffffffffffff16815260200190815260200160002060009054906101000a900460ff16905092915050565b600073ffffffffffffffffffffffffffffffffffffffff168273ffffffffffffffffffffffffffffffffffffffff1614156200073f57600080fd5b6200075081620005c160201b60201c565b156200075b57600080fd5b816002600083815260200190815260200160002060006101000a81548173ffffffffffffffffffffffffffffffffffffffff021916908373ffffffffffffffffffffffffffffffffffffffff16021790555062000801600460008473ffffffffffffffffffffffffffffffffffffffff1673ffffffffffffffffffffffffffffffffffffffff1681526020019081526020016000206200097460201b62003c441760201c565b808273ffffffffffffffffffffffffffffffffffffffff16600073ffffffffffffffffffffffffffffffffffffffff167fddf252ad1be2c89b69c2b068fc378daa952ba7f163c4a11628f55a4df523b3ef60405160405180910390a45050565b600660008373ffffffffffffffffffffffffffffffffffffffff1673ffffffffffffffffffffffffffffffffffffffff168152602001908152602001600020805490506007600083815260200190815260200160002081905550600660008373ffffffffffffffffffffffffffffffffffffffff1673ffffffffffffffffffffffffffffffffffffffff1681526020019081526020016000208190806001815401808255809150509060018203906000526020600020016000909192909190915055505050565b6008805490506009600083815260200190815260200160002081905550600881908060018154018082558091505090600182039060005260206000200160009091929091909150555050565b6001816000016000828254019250508190555050565b828054600181600116156101000203166002900490600052602060002090601f016020900481019282601f10620009cd57805160ff1916838001178555620009fe565b82800160010185558215620009fe579182015b82811115620009fd578251825591602001919060010190620009e0565b5b50905062000a0d919062000ac7565b5090565b6040518060a0016040528060008152602001600081526020016000815260200160008152602001606081525090565b828054600181600116156101000203166002900490600052602060002090601f016020900481019282601f1062000a8357805160ff191683800117855562000ab4565b8280016001018555821562000ab4579182015b8281111562000ab357825182559160200191906001019062000a96565b5b50905062000ac3919062000ac7565b5090565b62000aec91905b8082111562000ae857600081600090555060010162000ace565b5090565b90565b613fd48062000aff6000396000f3fe6080604052600436106102305760003560e01c80636352211e1161012e578063b3de019c116100ab578063e985e9c51161006f578063e985e9c514610fa3578063ecc5b8061461102c578063f2b5a4aa146110fb578063f5351e69146111ca578063f53d0a8e146111e157610230565b8063b3de019c14610c81578063b88d4fde14610cc6578063bae04c9a14610dd8578063c5b57efc14610e1d578063c87b56dd14610eef57610230565b806395d89b41116100f257806395d89b4114610a4a5780639cf64cc614610ada578063a22cb46514610bb1578063a6f1fd5114610c0e578063b282226014610c3c57610230565b80636352211e146108eb5780636ef8d66d1461096657806370a082311461097d57806382dc1ec4146109e25780638456cb5914610a3357610230565b80632f745c59116101bc57806346fbf68e1161018057806346fbf68e1461078a5780634a18564b146107f35780634f6ccce7146108425780635c975abb1461089157806361615ed6146108c057610230565b80632f745c591461059e5780633f4ba83a1461060d57806340733c961461062457806342842e0e1461066957806342f6ed37146106e457610230565b806318160ddd1161020357806318160ddd1461041557806323b872dd1461044057806323ebc82b146104bb578063275019b01461050a5780632beb81591461055957610230565b806301ffc9a71461023d57806306fdde03146102af578063081812fc1461033f578063095ea7b3146103ba575b600061023b57600080fd5b005b34801561024957600080fd5b506102956004803603602081101561026057600080fd5b8101908080357bffffffffffffffffffffffffffffffffffffffffffffffffffffffff19169060200190929190505050611238565b604051808215151515815260200191505060405180910390f35b3480156102bb57600080fd5b506102c46112a0565b6040518080602001828103825283818151815260200191508051906020019080838360005b838110156103045780820151818401526020810190506102e9565b50505050905090810190601f1680156103315780820380516001836020036101000a031916815260200191505b509250505060405180910390f35b34801561034b57600080fd5b506103786004803603602081101561036257600080fd5b8101908080359060200190929190505050611342565b604051808273ffffffffffffffffffffffffffffffffffffffff1673ffffffffffffffffffffffffffffffffffffffff16815260200191505060405180910390f35b3480156103c657600080fd5b50610413600480360360408110156103dd57600080fd5b81019080803573ffffffffffffffffffffffffffffffffffffffff16906020019092919080359060200190929190505050611391565b005b34801561042157600080fd5b5061042a6113b9565b6040518082815260200191505060405180910390f35b34801561044c57600080fd5b506104b96004803603606081101561046357600080fd5b81019080803573ffffffffffffffffffffffffffffffffffffffff169060200190929190803573ffffffffffffffffffffffffffffffffffffffff169060200190929190803590602001909291905050506113c6565b005b3480156104c757600080fd5b506104f4600480360360208110156104de57600080fd5b81019080803590602001909291905050506113f0565b6040518082815260200191505060405180910390f35b34801561051657600080fd5b506105436004803603602081101561052d57600080fd5b810190808035906020019092919050505061147f565b6040518082815260200191505060405180910390f35b34801561056557600080fd5b5061059c6004803603604081101561057c57600080fd5b81019080803590602001909291908035906020019092919050505061157f565b005b3480156105aa57600080fd5b506105f7600480360360408110156105c157600080fd5b81019080803573ffffffffffffffffffffffffffffffffffffffff169060200190929190803590602001909291905050506115db565b6040518082815260200191505060405180910390f35b34801561061957600080fd5b5061062261164e565b005b34801561063057600080fd5b506106676004803603604081101561064757600080fd5b8101908080359060200190929190803590602001909291905050506116f9565b005b34801561067557600080fd5b506106e26004803603606081101561068c57600080fd5b81019080803573ffffffffffffffffffffffffffffffffffffffff169060200190929190803573ffffffffffffffffffffffffffffffffffffffff16906020019092919080359060200190929190505050611755565b005b3480156106f057600080fd5b506107336004803603602081101561070757600080fd5b81019080803573ffffffffffffffffffffffffffffffffffffffff169060200190929190505050611775565b6040518080602001828103825283818151815260200191508051906020019060200280838360005b8381101561077657808201518184015260208101905061075b565b505050509050019250505060405180910390f35b34801561079657600080fd5b506107d9600480360360208110156107ad57600080fd5b81019080803573ffffffffffffffffffffffffffffffffffffffff1690602001909291905050506117d6565b604051808215151515815260200191505060405180910390f35b3480156107ff57600080fd5b5061082c6004803603602081101561081657600080fd5b81019080803590602001909291905050506117f3565b6040518082815260200191505060405180910390f35b34801561084e57600080fd5b5061087b6004803603602081101561086557600080fd5b810190808035906020019092919050505061180b565b6040518082815260200191505060405180910390f35b34801561089d57600080fd5b506108a661183f565b604051808215151515815260200191505060405180910390f35b3480156108cc57600080fd5b506108d5611856565b6040518082815260200191505060405180910390f35b3480156108f757600080fd5b506109246004803603602081101561090e57600080fd5b810190808035906020019092919050505061185c565b604051808273ffffffffffffffffffffffffffffffffffffffff1673ffffffffffffffffffffffffffffffffffffffff16815260200191505060405180910390f35b34801561097257600080fd5b5061097b6118d8565b005b34801561098957600080fd5b506109cc600480360360208110156109a057600080fd5b81019080803573ffffffffffffffffffffffffffffffffffffffff1690602001909291905050506118e3565b6040518082815260200191505060405180910390f35b3480156109ee57600080fd5b50610a3160048036036020811015610a0557600080fd5b81019080803573ffffffffffffffffffffffffffffffffffffffff16906020019092919050505061196c565b005b348015610a3f57600080fd5b50610a4861198a565b005b348015610a5657600080fd5b50610a5f611a36565b6040518080602001828103825283818151815260200191508051906020019080838360005b83811015610a9f578082015181840152602081019050610a84565b50505050905090810190601f168015610acc5780820380516001836020036101000a031916815260200191505b509250505060405180910390f35b348015610ae657600080fd5b50610b1360048036036020811015610afd57600080fd5b8101908080359060200190929190505050611ad8565b6040518087815260200186815260200185815260200184815260200180602001838152602001828103825284818151815260200191508051906020019080838360005b83811015610b71578082015181840152602081019050610b56565b50505050905090810190601f168015610b9e5780820380516001836020036101000a031916815260200191505b5097505050505050505060405180910390f35b348015610bbd57600080fd5b50610c0c60048036036040811015610bd457600080fd5b81019080803573ffffffffffffffffffffffffffffffffffffffff169060200190929190803515159060200190929190505050611c34565b005b610c3a60048036036020811015610c2457600080fd5b8101908080359060200190929190505050611c5c565b005b348015610c4857600080fd5b50610c7f60048036036040811015610c5f57600080fd5b810190808035906020019092919080359060200190929190505050611db7565b005b348015610c8d57600080fd5b50610cc460048036036040811015610ca457600080fd5b810190808035906020019092919080359060200190929190505050611e13565b005b348015610cd257600080fd5b50610dd660048036036080811015610ce957600080fd5b81019080803573ffffffffffffffffffffffffffffffffffffffff169060200190929190803573ffffffffffffffffffffffffffffffffffffffff1690602001909291908035906020019092919080359060200190640100000000811115610d5057600080fd5b820183602082011115610d6257600080fd5b80359060200191846001830284011164010000000083111715610d8457600080fd5b91908080601f016020809104026020016040519081016040528093929190818152602001838380828437600081840152601f19601f820116905080830192505050505050509192919290505050611f90565b005b348015610de457600080fd5b50610e1b60048036036040811015610dfb57600080fd5b810190808035906020019092919080359060200190929190505050611fb6565b005b348015610e2957600080fd5b50610eed60048036036040811015610e4057600080fd5b810190808035906020019092919080359060200190640100000000811115610e6757600080fd5b820183602082011115610e7957600080fd5b80359060200191846001830284011164010000000083111715610e9b57600080fd5b91908080601f016020809104026020016040519081016040528093929190818152602001838380828437600081840152601f19601f820116905080830192505050505050509192919290505050612146565b005b348015610efb57600080fd5b50610f2860048036036020811015610f1257600080fd5b810190808035906020019092919050505061225c565b6040518080602001828103825283818151815260200191508051906020019080838360005b83811015610f68578082015181840152602081019050610f4d565b50505050905090810190601f168015610f955780820380516001836020036101000a031916815260200191505b509250505060405180910390f35b348015610faf57600080fd5b5061101260048036036040811015610fc657600080fd5b81019080803573ffffffffffffffffffffffffffffffffffffffff169060200190929190803573ffffffffffffffffffffffffffffffffffffffff169060200190929190505050612323565b604051808215151515815260200191505060405180910390f35b6110f96004803603606081101561104257600080fd5b8101908080359060200190929190803590602001909291908035906020019064010000000081111561107357600080fd5b82018360208201111561108557600080fd5b803590602001918460018302840111640100000000831117156110a757600080fd5b91908080601f016020809104026020016040519081016040528093929190818152602001838380828437600081840152601f19601f8201169050808301925050505050505091929192905050506123b7565b005b6111c86004803603606081101561111157600080fd5b8101908080359060200190929190803590602001909291908035906020019064010000000081111561114257600080fd5b82018360208201111561115457600080fd5b8035906020019184600183028401116401000000008311171561117657600080fd5b91908080601f016020809104026020016040519081016040528093929190818152602001838380828437600081840152601f19601f82011690508083019250505050505050919291929050505061256a565b005b3480156111d657600080fd5b506111df612880565b005b3480156111ed57600080fd5b506111f661291c565b604051808273ffffffffffffffffffffffffffffffffffffffff1673ffffffffffffffffffffffffffffffffffffffff16815260200191505060405180910390f35b600060016000837bffffffffffffffffffffffffffffffffffffffffffffffffffffffff19167bffffffffffffffffffffffffffffffffffffffffffffffffffffffff1916815260200190815260200160002060009054906101000a900460ff169050919050565b6060600a8054600181600116156101000203166002900480601f0160208091040260200160405190810160405280929190818152602001828054600181600116156101000203166002900480156113385780601f1061130d57610100808354040283529160200191611338565b820191906000526020600020905b81548152906001019060200180831161131b57829003601f168201915b5050505050905090565b600061134d82612942565b61135657600080fd5b6003600083815260200190815260200160002060009054906101000a900473ffffffffffffffffffffffffffffffffffffffff169050919050565b600e60009054906101000a900460ff16156113ab57600080fd5b6113b582826129b4565b5050565b6000600880549050905090565b600e60009054906101000a900460ff16156113e057600080fd5b6113eb838383612af5565b505050565b60008160008110158015611409575061140881612942565b5b61141257600080fd5b600080848154811061142057fe5b9060005260206000209060050201905060006114458583600101548460030154612b18565b90508160020154811061145d57600093505050611479565b611474818360020154612bd690919063ffffffff16565b935050505b50919050565b60008160008110158015611498575061149781612942565b5b6114a157600080fd5b60008084815481106114af57fe5b9060005260206000209060050201905060008160010154111561157057600080601160008781526020019081526020016000205414611501576011600086815260200190815260200160002054611504565b60645b9050600061154762278d00611539606461152b868860010154612bf690919063ffffffff16565b612c3090919063ffffffff16565b612c3090919063ffffffff16565b9050611560818460020154612c3090919063ffffffff16565b8360030154019450505050611579565b80600301549250505b50919050565b611588336117d6565b61159157600080fd5b81600081101580156115a857506115a781612942565b5b6115b157600080fd5b600082116115be57600080fd5b816011600085815260200190815260200160002081905550505050565b60006115e6836118e3565b82106115f157600080fd5b600660008473ffffffffffffffffffffffffffffffffffffffff1673ffffffffffffffffffffffffffffffffffffffff168152602001908152602001600020828154811061163b57fe5b9060005260206000200154905092915050565b611657336117d6565b61166057600080fd5b600e60009054906101000a900460ff1661167957600080fd5b6000600e60006101000a81548160ff0219169083151502179055507f5db9ee0a495bf2e6ff9c91a7834c1ba4fdd244a5e8aa4e537bd38aeae4b073aa33604051808273ffffffffffffffffffffffffffffffffffffffff1673ffffffffffffffffffffffffffffffffffffffff16815260200191505060405180910390a1565b611702336117d6565b61170b57600080fd5b8160008110158015611722575061172181612942565b5b61172b57600080fd5b6000821161173857600080fd5b816013600085815260200190815260200160002081905550505050565b61177083838360405180602001604052806000815250611f90565b505050565b606061178082612c56565b8054806020026020016040519081016040528092919081815260200182805480156117ca57602002820191906000526020600020905b8154815260200190600101908083116117b6575b50505050509050919050565b60006117ec82600d612c9e90919063ffffffff16565b9050919050565b600f6020528060005260406000206000915090505481565b60006118156113b9565b821061182057600080fd5b6008828154811061182d57fe5b90600052602060002001549050919050565b6000600e60009054906101000a900460ff16905090565b60105481565b6000806002600084815260200190815260200160002060009054906101000a900473ffffffffffffffffffffffffffffffffffffffff169050600073ffffffffffffffffffffffffffffffffffffffff168173ffffffffffffffffffffffffffffffffffffffff1614156118cf57600080fd5b80915050919050565b6118e133612d30565b565b60008073ffffffffffffffffffffffffffffffffffffffff168273ffffffffffffffffffffffffffffffffffffffff16141561191e57600080fd5b611965600460008473ffffffffffffffffffffffffffffffffffffffff1673ffffffffffffffffffffffffffffffffffffffff168152602001908152602001600020612d8a565b9050919050565b611975336117d6565b61197e57600080fd5b61198781612d98565b50565b611993336117d6565b61199c57600080fd5b600e60009054906101000a900460ff16156119b657600080fd5b6001600e60006101000a81548160ff0219169083151502179055507f62e78cea01bee320cd4e420270b5ea74000d11b0c9f74754ebdbfc544b05a25833604051808273ffffffffffffffffffffffffffffffffffffffff1673ffffffffffffffffffffffffffffffffffffffff16815260200191505060405180910390a1565b6060600b8054600181600116156101000203166002900480601f016020809104026020016040519081016040528092919081815260200182805460018160011615610100020316600290048015611ace5780601f10611aa357610100808354040283529160200191611ace565b820191906000526020600020905b815481529060010190602001808311611ab157829003601f168201915b5050505050905090565b600080600080606060008660008110158015611af95750611af881612942565b5b611b0257600080fd5b6000808981548110611b1057fe5b9060005260206000209060050201905080600001549750611b30896113f0565b95506000861115611b45578060010154611b48565b60005b965080600301549450806004018054600181600116156101000203166002900480601f016020809104026020016040519081016040528092919081815260200182805460018160011615610100020316600290048015611be95780601f10611bbe57610100808354040283529160200191611be9565b820191906000526020600020905b815481529060010190602001808311611bcc57829003601f168201915b505050505093506000601160008b81526020019081526020016000205414611c2457601160008a815260200190815260200160002054611c27565b60645b9250505091939550919395565b600e60009054906101000a900460ff1615611c4e57600080fd5b611c588282612df2565b5050565b8060008110158015611c735750611c7281612942565b5b611c7c57600080fd5b60003411611c8957600080fd5b60008090506000809050611c9c84612f2c565b809250819350505060003490506000821115611d1d5781811115611ced57611ccd8282612bd690919063ffffffff16565b9050611ce2828461301a90919063ffffffff16565b925060009150611d1c565b611d00818461301a90919063ffffffff16565b9250611d158183612bd690919063ffffffff16565b9150600090505b5b6000808681548110611d2b57fe5b90600052602060002090600502019050611d4c868260000154866000613039565b611d6382826002015461301a90919063ffffffff16565b81600201819055506000816002015411611d8257600081600101819055505b857fb4046a4a3e9092e0a4473ba2ca3d3b8256c1bd13be151231d9af09cf7836d62660405160405180910390a2505050505050565b611dc0336117d6565b611dc957600080fd5b8160008110158015611de05750611ddf81612942565b5b611de957600080fd5b60008211611df657600080fd5b816012600085815260200190815260200160002081905550505050565b8160008110158015611e2a5750611e2981612942565b5b611e3357600080fd5b611e3c8361185c565b73ffffffffffffffffffffffffffffffffffffffff163373ffffffffffffffffffffffffffffffffffffffff1614611ebf576040517f08c379a000000000000000000000000000000000000000000000000000000000815260040180806020018281038252602c815260200180613ede602c913960400191505060405180910390fd5b6000821015611f36576040517f08c379a000000000000000000000000000000000000000000000000000000000815260040180806020018281038252601c8152602001807f6368616e676550726963653a20496e636f72726563742050726963650000000081525060200191505060405180910390fd5b6000808481548110611f4457fe5b90600052602060002090600502019050828160010181905550837f6bf79053acd4a6bb1911b02099ac273228b3bbf917411bc159d6cb7846fcfcf760405160405180910390a250505050565b611f9b8484846113c6565b611fa78484848461324d565b611fb057600080fd5b50505050565b8160008110158015611fcd5750611fcc81612942565b5b611fd657600080fd5b611fdf8361185c565b73ffffffffffffffffffffffffffffffffffffffff163373ffffffffffffffffffffffffffffffffffffffff161461201657600080fd5b6000821161202357600080fd5b6000809050600080905061203685612f2c565b8092508193505050600080868154811061204c57fe5b9060005260206000209060050201905061206d868260000154856000613039565b6000821161211157806002015485111561208957806002015494505b6120a0858260020154612bd690919063ffffffff16565b816002018190555060008160020154116120bf57600081600101819055505b6000851115612110573373ffffffffffffffffffffffffffffffffffffffff166108fc869081150290604051600060405180830381858888f1935050505015801561210e573d6000803e3d6000fd5b505b5b857f449d7d6544525d22f8d9dfd92ee36314673aa7af4db554af600cf63e65663e1260405160405180910390a2505050505050565b816000811015801561215d575061215c81612942565b5b61216657600080fd5b61216f8361185c565b73ffffffffffffffffffffffffffffffffffffffff163373ffffffffffffffffffffffffffffffffffffffff16146121f2576040517f08c379a000000000000000000000000000000000000000000000000000000000815260040180806020018281038252602e815260200180613f7b602e913960400191505060405180910390fd5b600080848154811061220057fe5b9060005260206000209060050201905082816004019080519060200190612228929190613d3b565b50837fd3e1d6aa6f312c02345a8c1e3d977f5cbce042cbedfb91e157b108cb00a5cb3260405160405180910390a250505050565b606061226782612942565b61227057600080fd5b600c60008381526020019081526020016000208054600181600116156101000203166002900480601f0160208091040260200160405190810160405280929190818152602001828054600181600116156101000203166002900480156123175780601f106122ec57610100808354040283529160200191612317565b820191906000526020600020905b8154815290600101906020018083116122fa57829003601f168201915b50505050509050919050565b6000600560008473ffffffffffffffffffffffffffffffffffffffff1673ffffffffffffffffffffffffffffffffffffffff16815260200190815260200160002060008373ffffffffffffffffffffffffffffffffffffffff1673ffffffffffffffffffffffffffffffffffffffff16815260200190815260200160002060009054906101000a900460ff16905092915050565b600073ffffffffffffffffffffffffffffffffffffffff163373ffffffffffffffffffffffffffffffffffffffff1614156123f157600080fd5b60008210156123ff57600080fd5b6000831015612459576040517f08c379a000000000000000000000000000000000000000000000000000000000815260040180806020018281038252603a815260200180613f0a603a913960400191505060405180910390fd5b612461613dbb565b6040518060a0016040528061247585612942565b612480576000612482565b845b815260200160003411156124965785612499565b60005b81526020013481526020014281526020018381525090506000600160008390806001815401808255809150509060018203906000526020600020906005020160009091929091909150600082015181600001556020820151816001015560408201518160020155606082015181600301556080820151816004019080519060200190612526929190613dea565b5050500390506125363382613436565b807f875bdb53038c98213c9a6af73e45d73b77c6d55d1f9614a8c0624808373eda2c60405160405180910390a25050505050565b8260008110158015612581575061258081612942565b5b61258a57600080fd5b600073ffffffffffffffffffffffffffffffffffffffff163373ffffffffffffffffffffffffffffffffffffffff1614156125c457600080fd5b600083101561261e576040517f08c379a0000000000000000000000000000000000000000000000000000000008152600401808060200182810382526037815260200180613f446037913960400191505060405180910390fd5b60006126298561185c565b9050600073ffffffffffffffffffffffffffffffffffffffff168173ffffffffffffffffffffffffffffffffffffffff161415801561269457508073ffffffffffffffffffffffffffffffffffffffff163373ffffffffffffffffffffffffffffffffffffffff1614155b61269d57600080fd5b600080905060008090506126b087612f2c565b809250819350505060008088815481106126c657fe5b906000526020600020906005020190508060010154341015612733576040517f08c379a0000000000000000000000000000000000000000000000000000000008152600401808060200182810382526022815260200180613ebc6022913960400191505060405180910390fd5b6000816001015490506000826002015411156127635761276082600201548261301a90919063ffffffff16565b90505b60008311156127d757828111156127a7576127878382612bd690919063ffffffff16565b905061279c838561301a90919063ffffffff16565b9350600092506127d6565b6127ba818561301a90919063ffffffff16565b93506127cf8184612bd690919063ffffffff16565b9250600090505b5b6127e78983600001548684613039565b6127fe826001015434612bd690919063ffffffff16565b8260020181905550600082600201541115612819578761281c565b60005b82600101819055508682600401908051906020019061283c929190613d3b565b5061284885338b613457565b887f3e405113778d3b96e0eab3ae46f24133b1165b037116937e810c384bcbcfdff760405160405180910390a2505050505050505050565b612889336117d6565b61289257600080fd5b6000601054116128a157600080fd5b600060105490506000601081905550600e60019054906101000a900473ffffffffffffffffffffffffffffffffffffffff1673ffffffffffffffffffffffffffffffffffffffff166108fc829081150290604051600060405180830381858888f19350505050158015612918573d6000803e3d6000fd5b5050565b600e60019054906101000a900473ffffffffffffffffffffffffffffffffffffffff1681565b6000806002600084815260200190815260200160002060009054906101000a900473ffffffffffffffffffffffffffffffffffffffff169050600073ffffffffffffffffffffffffffffffffffffffff168173ffffffffffffffffffffffffffffffffffffffff161415915050919050565b60006129bf8261185c565b90508073ffffffffffffffffffffffffffffffffffffffff168373ffffffffffffffffffffffffffffffffffffffff1614156129fa57600080fd5b8073ffffffffffffffffffffffffffffffffffffffff163373ffffffffffffffffffffffffffffffffffffffff161480612a3a5750612a398133612323565b5b612a4357600080fd5b826003600084815260200190815260200160002060006101000a81548173ffffffffffffffffffffffffffffffffffffffff021916908373ffffffffffffffffffffffffffffffffffffffff160217905550818373ffffffffffffffffffffffffffffffffffffffff168273ffffffffffffffffffffffffffffffffffffffff167f8c5be1e5ebec7d5bd14f71427d1e84f3dd0314c0f7b2291e5b200ac8c7c3b92560405160405180910390a4505050565b612aff3382613467565b612b0857600080fd5b612b138383836134fc565b505050565b6000808310158015612b2a5750600082115b612b3357600080fd5b600080601160008781526020019081526020016000205414612b68576011600086815260200190815260200160002054612b6b565b60645b9050612bcc62278d00612bbe6064612bb085612ba2612b938a42612bd690919063ffffffff16565b8b612bf690919063ffffffff16565b612bf690919063ffffffff16565b612c3090919063ffffffff16565b612c3090919063ffffffff16565b9150509392505050565b600082821115612be557600080fd5b600082840390508091505092915050565b600080831415612c095760009050612c2a565b6000828402905082848281612c1a57fe5b0414612c2557600080fd5b809150505b92915050565b6000808211612c3e57600080fd5b6000828481612c4957fe5b0490508091505092915050565b6000600660008373ffffffffffffffffffffffffffffffffffffffff1673ffffffffffffffffffffffffffffffffffffffff1681526020019081526020016000209050919050565b60008073ffffffffffffffffffffffffffffffffffffffff168273ffffffffffffffffffffffffffffffffffffffff161415612cd957600080fd5b8260000160008373ffffffffffffffffffffffffffffffffffffffff1673ffffffffffffffffffffffffffffffffffffffff16815260200190815260200160002060009054906101000a900460ff16905092915050565b612d4481600d61352090919063ffffffff16565b8073ffffffffffffffffffffffffffffffffffffffff167fcd265ebaf09df2871cc7bd4133404a235ba12eff2041bb89d9c714a2621c7c7e60405160405180910390a250565b600081600001549050919050565b612dac81600d6135cb90919063ffffffff16565b8073ffffffffffffffffffffffffffffffffffffffff167f6719d08c1888103bea251a4ed56406bd0c3e69723c8a1686e017e7bbe159b6f860405160405180910390a250565b3373ffffffffffffffffffffffffffffffffffffffff168273ffffffffffffffffffffffffffffffffffffffff161415612e2b57600080fd5b80600560003373ffffffffffffffffffffffffffffffffffffffff1673ffffffffffffffffffffffffffffffffffffffff16815260200190815260200160002060008473ffffffffffffffffffffffffffffffffffffffff1673ffffffffffffffffffffffffffffffffffffffff16815260200190815260200160002060006101000a81548160ff0219169083151502179055508173ffffffffffffffffffffffffffffffffffffffff163373ffffffffffffffffffffffffffffffffffffffff167f17307eab39ab6107e8899845ad3d59bd9653f200f220920489ca2b5937696c3183604051808215151515815260200191505060405180910390a35050565b6000806000808481548110612f3d57fe5b906000526020600020906005020190506000612f628583600101548460030154612b18565b90506000811415612f7a576000935060009250613013565b81600201548110612fcb5781600201549350612f9f8482612bd690919063ffffffff16565b9250612faa8561147f565b82600301819055506000826002018190555060008260010181905550613012565b80935060009250428260030181905550612ff2818360020154612bd690919063ffffffff16565b8260020181905550600082600201541161301157600082600101819055505b5b5b5050915091565b60008082840190508381101561302f57600080fd5b8091505092915050565b60008060126000878152602001908152602001600020541461306e576012600086815260200190815260200160002054613071565b60325b9050600061309b606461308d8487612bf690919063ffffffff16565b612c3090919063ffffffff16565b905060006130b28286612bd690919063ffffffff16565b9050600082111561314e5760006130c88761185c565b90506000819050600073ffffffffffffffffffffffffffffffffffffffff168173ffffffffffffffffffffffffffffffffffffffff161461314b578073ffffffffffffffffffffffffffffffffffffffff166108fc859081150290604051600060405180830381858888f19350505050158015613149573d6000803e3d6000fd5b505b50505b60008111156131b05761317d81600f60008a81526020019081526020016000205461301a90919063ffffffff16565b600f6000898152602001908152602001600020819055506131a98160105461301a90919063ffffffff16565b6010819055505b60008411156132155760006131c48861185c565b905060008190508073ffffffffffffffffffffffffffffffffffffffff166108fc879081150290604051600060405180830381858888f19350505050158015613211573d6000803e3d6000fd5b5050505b8082887f316a039a436707f39184a2cab8537eb54bd35f944fa4e12acf3a9a2a2d9ce78860405160405180910390a450505050505050565b600061326e8473ffffffffffffffffffffffffffffffffffffffff16613677565b61327b576001905061342e565b60008473ffffffffffffffffffffffffffffffffffffffff1663150b7a02338887876040518563ffffffff1660e01b8152600401808573ffffffffffffffffffffffffffffffffffffffff1673ffffffffffffffffffffffffffffffffffffffff1681526020018473ffffffffffffffffffffffffffffffffffffffff1673ffffffffffffffffffffffffffffffffffffffff16815260200183815260200180602001828103825283818151815260200191508051906020019080838360005b8381101561335657808201518184015260208101905061333b565b50505050905090810190601f1680156133835780820380516001836020036101000a031916815260200191505b5095505050505050602060405180830381600087803b1580156133a557600080fd5b505af11580156133b9573d6000803e3d6000fd5b505050506040513d60208110156133cf57600080fd5b8101908080519060200190929190505050905063150b7a0260e01b7bffffffffffffffffffffffffffffffffffffffffffffffffffffffff1916817bffffffffffffffffffffffffffffffffffffffffffffffffffffffff1916149150505b949350505050565b613440828261368a565b61344a82826137d0565b61345381613897565b5050565b6134628383836134fc565b505050565b6000806134738361185c565b90508073ffffffffffffffffffffffffffffffffffffffff168473ffffffffffffffffffffffffffffffffffffffff1614806134e257508373ffffffffffffffffffffffffffffffffffffffff166134ca84611342565b73ffffffffffffffffffffffffffffffffffffffff16145b806134f357506134f28185612323565b5b91505092915050565b6135078383836138e3565b6135118382613aa6565b61351b82826137d0565b505050565b600073ffffffffffffffffffffffffffffffffffffffff168173ffffffffffffffffffffffffffffffffffffffff16141561355a57600080fd5b6135648282612c9e565b61356d57600080fd5b60008260000160008373ffffffffffffffffffffffffffffffffffffffff1673ffffffffffffffffffffffffffffffffffffffff16815260200190815260200160002060006101000a81548160ff0219169083151502179055505050565b600073ffffffffffffffffffffffffffffffffffffffff168173ffffffffffffffffffffffffffffffffffffffff16141561360557600080fd5b61360f8282612c9e565b1561361957600080fd5b60018260000160008373ffffffffffffffffffffffffffffffffffffffff1673ffffffffffffffffffffffffffffffffffffffff16815260200190815260200160002060006101000a81548160ff0219169083151502179055505050565b600080823b905060008111915050919050565b600073ffffffffffffffffffffffffffffffffffffffff168273ffffffffffffffffffffffffffffffffffffffff1614156136c457600080fd5b6136cd81612942565b156136d757600080fd5b816002600083815260200190815260200160002060006101000a81548173ffffffffffffffffffffffffffffffffffffffff021916908373ffffffffffffffffffffffffffffffffffffffff160217905550613770600460008473ffffffffffffffffffffffffffffffffffffffff1673ffffffffffffffffffffffffffffffffffffffff168152602001908152602001600020613c44565b808273ffffffffffffffffffffffffffffffffffffffff16600073ffffffffffffffffffffffffffffffffffffffff167fddf252ad1be2c89b69c2b068fc378daa952ba7f163c4a11628f55a4df523b3ef60405160405180910390a45050565b600660008373ffffffffffffffffffffffffffffffffffffffff1673ffffffffffffffffffffffffffffffffffffffff168152602001908152602001600020805490506007600083815260200190815260200160002081905550600660008373ffffffffffffffffffffffffffffffffffffffff1673ffffffffffffffffffffffffffffffffffffffff1681526020019081526020016000208190806001815401808255809150509060018203906000526020600020016000909192909190915055505050565b6008805490506009600083815260200190815260200160002081905550600881908060018154018082558091505090600182039060005260206000200160009091929091909150555050565b8273ffffffffffffffffffffffffffffffffffffffff166139038261185c565b73ffffffffffffffffffffffffffffffffffffffff161461392357600080fd5b600073ffffffffffffffffffffffffffffffffffffffff168273ffffffffffffffffffffffffffffffffffffffff16141561395d57600080fd5b61396681613c5a565b6139ad600460008573ffffffffffffffffffffffffffffffffffffffff1673ffffffffffffffffffffffffffffffffffffffff168152602001908152602001600020613d18565b6139f4600460008473ffffffffffffffffffffffffffffffffffffffff1673ffffffffffffffffffffffffffffffffffffffff168152602001908152602001600020613c44565b816002600083815260200190815260200160002060006101000a81548173ffffffffffffffffffffffffffffffffffffffff021916908373ffffffffffffffffffffffffffffffffffffffff160217905550808273ffffffffffffffffffffffffffffffffffffffff168473ffffffffffffffffffffffffffffffffffffffff167fddf252ad1be2c89b69c2b068fc378daa952ba7f163c4a11628f55a4df523b3ef60405160405180910390a4505050565b6000613afe6001600660008673ffffffffffffffffffffffffffffffffffffffff1673ffffffffffffffffffffffffffffffffffffffff16815260200190815260200160002080549050612bd690919063ffffffff16565b9050600060076000848152602001908152602001600020549050818114613beb576000600660008673ffffffffffffffffffffffffffffffffffffffff1673ffffffffffffffffffffffffffffffffffffffff1681526020019081526020016000208381548110613b6b57fe5b9060005260206000200154905080600660008773ffffffffffffffffffffffffffffffffffffffff1673ffffffffffffffffffffffffffffffffffffffff1681526020019081526020016000208381548110613bc357fe5b9060005260206000200181905550816007600083815260200190815260200160002081905550505b600660008573ffffffffffffffffffffffffffffffffffffffff1673ffffffffffffffffffffffffffffffffffffffff168152602001908152602001600020805480919060019003613c3d9190613e6a565b5050505050565b6001816000016000828254019250508190555050565b600073ffffffffffffffffffffffffffffffffffffffff166003600083815260200190815260200160002060009054906101000a900473ffffffffffffffffffffffffffffffffffffffff1673ffffffffffffffffffffffffffffffffffffffff1614613d155760006003600083815260200190815260200160002060006101000a81548173ffffffffffffffffffffffffffffffffffffffff021916908373ffffffffffffffffffffffffffffffffffffffff1602179055505b50565b613d3060018260000154612bd690919063ffffffff16565b816000018190555050565b828054600181600116156101000203166002900490600052602060002090601f016020900481019282601f10613d7c57805160ff1916838001178555613daa565b82800160010185558215613daa579182015b82811115613da9578251825591602001919060010190613d8e565b5b509050613db79190613e96565b5090565b6040518060a0016040528060008152602001600081526020016000815260200160008152602001606081525090565b828054600181600116156101000203166002900490600052602060002090601f016020900481019282601f10613e2b57805160ff1916838001178555613e59565b82800160010185558215613e59579182015b82811115613e58578251825591602001919060010190613e3d565b5b509050613e669190613e96565b5090565b815481835581811115613e9157818360005260206000209182019101613e909190613e96565b5b505050565b613eb891905b80821115613eb4576000816000905550600101613e9c565b5090565b9056fe6275794164426f6172643a204e6f20656e6f756768206d6f6e657920746f206275796368616e676550726963653a204f6e6c79206f776e65722063616e206368616e6765207468652070726963656372656174654164426f6172643a2050726963652073686f756c642062652067726561746572207468616e206f722065617175616c20746f20306275794164426f6172643a2050726963652073686f756c642062652067726561746572207468616e206f722065617175616c20746f20306368616e676550726963653a204f6e6c79206f776e65722063616e206368616e67652074686520636f6e74656e74a165627a7a72305820ed636647ebb05128c563f1c6f0e3808316f347d29d9c4df2eb6c90b9d122a1ce00296372656174654164426f6172643a2050726963652073686f756c642062652067726561746572207468616e206f722065617175616c20746f2030",
  "source": "pragma solidity >=0.4.21 <0.6.0;\n\n/**\n *    @title An Advertisement Board v0.0.1\n *    @notice Inspired by https://github.com/simondlr/thisartworkisalwaysonsale\n *    font: Straight & 3D Diagonal\n *\n *    ___ __           __  __  __     __  __  __ __ __    ___ __ \n *     | |_  /\\ |\\/|  |  \\/  \\/ _ |  |__)|__)|_ (_ |_ |\\ | | (_    \n *     | |__/--\\|  |  |__/\\__/\\__)|  |   | \\ |____)|__| \\| | __)\n *                                                                                                                                                                                                                                 \n *                                                                                          ,----..                                           \n *       ,---,                              ,---,            ,---,               ,---,.    /   /   \\      ,---,        ,-.----.      ,---,   \n *======'  .' \\============================'  .' \\=========.'  .' `\\===========,'  .'  \\==/   .     :===='  .' \\======\\    /  \\====.'  .' `\\========   \n *     /  ;    '.          ,---,          /  ;    '.     ,---.'     \\         ,---.' .' | .   /   ;.  \\ /  ;    '.    ;   :    \\ ,---.'     \\  \n *    :  :       \\     ,-+-. /  |        :  :       \\   |   |  .`\\  |        |   |  |: |.   ;   /  ` ;:  :       \\   |   | .\\ : |   |  .`\\  | \n *    :  |   /\\   \\   ,--.'|'   |        :  |   /\\   \\  :   : |  '  |        :   :  :  /;   |  ; \\ ; |:  |   /\\   \\  .   : |: | :   : |  '  | \n *    |  :  ' ;.   : |   |  ,\"' |        |  :  ' ;.   : |   ' '  ;  :        :   |    ; |   :  | ; | '|  :  ' ;.   : |   |  \\ : |   ' '  ;  : \n *    |  |  ;/  \\   \\|   | /  | |        |  |  ;/  \\   \\'   | ;  .  |        |   :     \\.   |  ' ' ' :|  |  ;/  \\   \\|   : .  / '   | ;  .  | \n *    '  :  | \\  \\ ,'|   | |  | |        '  :  | \\  \\ ,'|   | :  |  '        |   |   . |'   ;  \\; /  |'  :  | \\  \\ ,';   | |  \\ |   | :  |  ' \n *    |  |  '  '--'  |   | |  |/         |  |  '  '--'  '   : | /  ;         '   :  '; | \\   \\  ',  / |  |  '  '--'  |   | ;\\  \\'   : | /  ;  \n *    |  :  :        |   | |--'          |  :  :        |   | '` ,/          |   |  | ;   ;   :    /  |  :  :        :   ' | \\.'|   | '` ,/   \n *====|  | ,'========|   |/==============|  | ,'========;   :  .'============|   :   /====\\   \\ .'====|  | ,'========:   : :-'==;   :  .'==========  \n *    `--''          '---'               `--''          |   ,.'              |   | ,'       `---`     `--''          |   |.'    |   ,.'       \n *                                                      '---'                `----'                                  `---'      '---'         \n *\n *     __  __ __  __                 __ __  __ ___ __ \n *    /  \\|_ |_ |/  | /\\ |    |  https://www.dogigames.com     |  ||_ |__)(_ | | |_  \n *    \\__/|  |  |\\__|/--\\|__    |/\\||__|__)__)| | |__ \n *                                                                                                                        \n *                                                                                                                                                                                                                                                                                                                                                             \n */\nimport 'openzeppelin-solidity/contracts/token/ERC721/ERC721Full.sol';\nimport 'openzeppelin-solidity/contracts/token/ERC721/ERC721Pausable.sol';\nimport 'openzeppelin-solidity/contracts/math/SafeMath.sol';\n\n\n/**\n * font: Small\n *    _      _   ___                   _ ___               \n *   /_\\    /_\\ | _ ) ___  __ _ _ _ __| | _ ) __ _ ___ ___ \n *  / _ \\  / _ \\| _ \\/ _ \\/ _` | '_/ _` | _ \\/ _` (_-</ -_)\n * /_/ \\_\\/_/ \\_\\___/\\___/\\__,_|_| \\__,_|___/\\__,_/__/\\___|\n *                                                        \n */\ncontract AABoardBase {\n\n    struct AdBoardData {\n        uint256 parentId;\n        uint256 price;\n        uint256 deposit;\n        uint256 lastTaxPayTimestamp;\n        string content;\n    }\n    \n    AdBoardData[] internal allAdBoards;    \n}\n\n\n/**\n * font: Small\n *    _      _   ___                   _ ___            _ \n *   /_\\    /_\\ | _ ) ___  __ _ _ _ __| |_ _|_ __  _ __| |\n *  / _ \\  / _ \\| _ \\/ _ \\/ _` | '_/ _` || || '  \\| '_ \\ |\n * /_/ \\_\\/_/ \\_\\___/\\___/\\__,_|_| \\__,_|___|_|_|_| .__/_|\n *                                               |_|     \n *\n */\ncontract AABoardImpl is AABoardBase, ERC721Full, ERC721Pausable {\n\n    using SafeMath for uint256;\n\n    address payable public administrator;\n    mapping (uint256 => uint256) public taxIncome;\n    uint256 public allTaxIncome;\n    \n    uint256 internal constant PERCENTAGE_BASE = 100;\n    uint256 internal constant DEFAULT_TAX_RATE = 100;\n    uint256 internal constant DEFAULT_COPYRIGHT_RATE = 50;\n    uint256 internal constant DEFAULT_ADMINISTRATION_RATE = 50;\n\n    mapping (uint256 => uint256) private _customTaxRate;\n    mapping (uint256 => uint256) private _customCopyrightRate;\n    mapping (uint256 => uint256) private _customAdministrationRate;\n\n\n    /**\n    * font: Small\n    *  ___             _      \n    * | __|_ _____ _ _| |_ ___\n    * | _|\\ V / -_) ' \\  _(_-<\n    * |___|\\_/\\___|_||_\\__/__/\n    *                    \n    */\n    event BuyEvent(uint256 indexed adId);\n    event CreateEvent(uint256 indexed adId);\n    event TaxPayEvent(uint256 indexed adId, uint256 indexed copyrightAmount, uint256 indexed administrationAmount);\n    event ChangePriceEvent(uint256 indexed adId);\n    event ChangeContentEvent(uint256 indexed adId);\n    event AddDepositEvent(uint256 indexed adId);\n    event WithdrawDepositEvent(uint256 indexed adId);\n\n\n    /*\n     * font: Small\n     *  ___      _    _ _      ___             _   _             \n     * | _ \\_  _| |__| (_)__  | __|  _ _ _  __| |_(_)___ _ _  ___\n     * |  _/ || | '_ \\ | / _| | _| || | ' \\/ _|  _| / _ \\ ' \\(_-<\n     * |_|  \\_,_|_.__/_|_\\__| |_| \\_,_|_||_\\__|\\__|_\\___/_||_/__/\n     *\n     */\n\n    modifier adBoardExists(uint256 adId) {\n        require(adId >= 0 && _exists(adId));\n        _;\n    }\n     \n     /**\n     * @dev Constructor\n     * @param name The name of the NFT.\n     * @param symbol The symbol of the NFT.\n     */\n    constructor (string memory name, string memory symbol) public ERC721Full(name, symbol) {\n        // solhint-disable-previous-line no-empty-blocks\n    }\n\n    /**\n     * @dev Set custom tax rate of a specified Ad Board or DEFAULT_TAX_RATE will be used\n     * @param adId The id of the Ad Board to buy.\n     * @param rate Tax rate\n     */\n    function setTaxRate(uint256 adId, uint256 rate) public onlyPauser adBoardExists(adId) {\n        require(rate > 0);\n        _customTaxRate[adId] = rate;\n    }\n\n    /**\n     * @dev Set custom copyright tax rate of a specified Ad Board or DEFAULT_COPYRIGHT_RATE will be used\n     * @param adId The id of the Ad Board to buy.\n     * @param rate Tax rate\n     */\n    function setCopyrightRate(uint256 adId, uint256 rate) public onlyPauser adBoardExists(adId) {\n        require(rate > 0);\n       _customCopyrightRate[adId] = rate;\n    }\n\n    /**\n     * @dev Set custom administration tax rate of a specified Ad Board or DEFAULT_ADMINISTRATION_RATE will be used\n     * @param adId The id of the Ad Board to buy.\n     * @param rate Tax rate\n     */\n    function setAdministrationRate(uint256 adId, uint256 rate) public onlyPauser adBoardExists(adId) {\n        require(rate > 0);\n       _customAdministrationRate[adId] = rate;\n    }\n\n    /**\n     * @dev Buy an Ad Board\n     * @param adId The id of the Ad Board to buy.\n     * @param price The price of the created/forked Ad Board.\n     * @param content The content of the created/forked Ad Board.\n     */\n    function buyAdBoard(uint256 adId, uint256 price, string memory content) public payable adBoardExists(adId) {\n        require(msg.sender != address(0));\n        require(price >= 0, \"buyAdBoard: Price should be greater than or eaqual to 0\");\n\n        address currentOwner = ownerOf(adId);\n        require(currentOwner != address(0) && msg.sender != currentOwner);\n\n        uint256 collected = 0;\n        uint256 owed = 0;\n        (collected, owed) = _collectTax(adId);\n\n        AdBoardData storage data = allAdBoards[adId];\n        require(msg.value >= data.price, \"buyAdBoard: No enough money to buy\");\n\n        uint256 totalPayback = data.price;\n        if (data.deposit > 0) {\n            totalPayback = totalPayback.add(data.deposit);\n        }\n\n        if (owed > 0) {\n            if (totalPayback > owed) {\n                totalPayback = totalPayback.sub(owed);\n                collected = collected.add(owed);\n                owed = 0;\n            } else {\n                collected = collected.add(totalPayback);\n                owed = owed.sub(totalPayback);\n                totalPayback = 0;\n            }\n        }\n\n        _doCollectTax(adId, data.parentId, collected, totalPayback);\n\n        data.deposit = msg.value.sub(data.price);\n        data.price = (data.deposit <= 0) ? 0 : price;\n        data.content = content;\n        \n        _transferAdBoard(currentOwner, msg.sender, adId);\n\n        emit BuyEvent(adId);\n    }\n\n    /**\n     * @dev Create/forked an Ad Board from its parent \n     * @param price The desired price of the created/forked Ad Board.\n     * @param parentId The parent id of the created/forked Ad Board.\n     * @param content The content of the created/forked Ad Board.\n     */\n    function createAdBoard(uint256 price, uint256 parentId, string memory content) public payable {\n        require(msg.sender != address(0));\n        require(parentId >= 0);\n        require(price >= 0, \"createAdBoard: Price should be greater than or eaqual to 0\");\n\n        AdBoardData memory _adBoard = AdBoardData({\n            parentId: (_exists(parentId) ? parentId : 0),\n            price: (msg.value <= 0) ? 0 : price,\n            deposit: msg.value,\n            lastTaxPayTimestamp: block.timestamp,\n            content: content\n        });\n\n        uint256 adId = allAdBoards.push(_adBoard) - 1;\n        _mint(msg.sender, adId);\n\n        emit CreateEvent(adId);\n    }\n\n    /**\n     * @dev Get all Ad Boards of an owner\n     * @param owner owner.\n     * @return a list of Ad Boards the owner owns\n     */\n    function getAdBoardIds(address owner) public view returns (uint256[] memory) {\n        return _tokensOfOwner(owner);\n    }\n\n    /**\n     * @dev Get AdBoardData of an Ad Board\n     * @param adId id of the Ad Board.\n     * @return data of the Ad Board\n     */\n    function getAdBoardData(uint256 adId) public view adBoardExists(adId) returns (\n        uint256 parentId,\n        uint256 price,\n        uint256 deposit,\n        uint256 lastTaxPayTimestamp,\n        string memory content,\n        uint256 taxRate) {\n        \n        AdBoardData storage data = allAdBoards[adId];\n\n        parentId = uint256(data.parentId);\n        deposit = depositAbleToWithdraw(adId);\n        price = (deposit <= 0) ? 0 : uint256(data.price);\n        lastTaxPayTimestamp = uint256(data.lastTaxPayTimestamp);\n        content = string(data.content);\n        taxRate = (_customTaxRate[adId] == 0) ? DEFAULT_TAX_RATE : _customTaxRate[adId];\n    }\n    \n    /**\n     * @dev Change the price of of an Ad Board\n     * @param adId Id of the Ad Board.\n     * @param price Price to change to\n     */\n    function changePrice(uint256 adId, uint256 price) public adBoardExists(adId) {\n        require(msg.sender == ownerOf(adId), \"changePrice: Only owner can change the price\");\n        require(price >= 0, \"changePrice: Incorrect Price\");\n        \n        AdBoardData storage data = allAdBoards[adId];\n        data.price = price;\n\n        emit ChangePriceEvent(adId);\n    }\n\n    /**\n     * @dev Change the content of of an Ad Board\n     * @param adId Id of the Ad Board.\n     * @param content Content to change to\n     */\n    function changeContent(uint256 adId, string memory content) public adBoardExists(adId) {\n        require(msg.sender == ownerOf(adId), \"changePrice: Only owner can change the content\");\n        \n        AdBoardData storage data = allAdBoards[adId];\n        data.content = content;\n\n        emit ChangeContentEvent(adId);\n    }\n\n    /**\n     * @dev Withdraw all the tax income\n     */\n    function withdrawTaxIncome() public onlyPauser {\n        require(allTaxIncome > 0);\n        uint256 total = allTaxIncome;\n        allTaxIncome = 0;\n        administrator.transfer(total);\n    }\n\n    /**\n     * @dev Add deposit of an Ad Board. Note that anyone can deposit for this Ad Board.\n     * @param adId id of the Ad Board.\n     */\n    function addDeposit(uint256 adId) public payable adBoardExists(adId) {\n        require(msg.value > 0);\n\n        uint256 collected = 0;\n        uint256 owed = 0;\n        (collected, owed) = _collectTax(adId);\n\n        uint256 depositToAdd = msg.value;\n        if (owed > 0) {\n            if (depositToAdd > owed) {\n                depositToAdd = depositToAdd.sub(owed);\n                collected = collected.add(owed);\n                owed = 0;\n                \n            } else {\n                collected = collected.add(depositToAdd);\n                owed = owed.sub(depositToAdd);\n                depositToAdd = 0;\n            }\n        }\n\n        AdBoardData storage data = allAdBoards[adId];\n        _doCollectTax(adId, data.parentId, collected, 0);\n        data.deposit = data.deposit.add(depositToAdd);\n        if (data.deposit <= 0) {\n            data.price = 0;\n        }\n\n        emit AddDepositEvent(adId);\n    }\n\n    /**\n     * @dev Withdraw deposit of an Ad Board\n     * @param adId id of the Ad Board.\n     * @param amount amount to withdraw\n     */\n    function withdrawDeposit(uint256 adId, uint256 amount) public adBoardExists(adId) {\n        require(msg.sender == ownerOf(adId));\n        require(amount > 0);\n\n        uint256 collected = 0;\n        uint256 owed = 0;\n        (collected, owed) = _collectTax(adId);\n\n        AdBoardData storage data = allAdBoards[adId];\n        _doCollectTax(adId, data.parentId, collected, 0);\n\n        if (owed <= 0) {\n            if (amount > data.deposit) {\n                amount = data.deposit;\n            }\n            data.deposit = data.deposit.sub(amount);\n            if (data.deposit <= 0) {\n                data.price = 0;\n            }\n            if (amount > 0) {\n                msg.sender.transfer(amount);\n            }\n        }\n\n        emit WithdrawDepositEvent(adId);\n    }\n    \n    /**\n     * @dev Get DepositAble Withdraw of an Ad Board\n     * @param adId id of the Ad Board\n     */\n    function depositAbleToWithdraw(uint256 adId) public view adBoardExists(adId) returns (uint256) {\n        AdBoardData storage data = allAdBoards[adId];\n\n        uint256 owed = _taxOwed(adId, data.price, data.lastTaxPayTimestamp);\n        if (owed >= data.deposit) {\n            return 0;\n        } else {\n            return data.deposit.sub(owed);\n        }\n    }\n    \n    /**\n     * @dev Get due date of Ad Board\n     * @param adId id of the Ad Board\n     */\n    function dueDate(uint256 adId) public view adBoardExists(adId) returns (uint256) {\n        AdBoardData storage data = allAdBoards[adId];\n\n        if (data.price > 0) {\n            uint256 taxRate = (_customTaxRate[adId] == 0) ? DEFAULT_TAX_RATE : _customTaxRate[adId];\n            uint256 taxPerSecond = data.price.mul(taxRate).div(PERCENTAGE_BASE).div(30 days);\n            return data.lastTaxPayTimestamp + data.deposit.div(taxPerSecond);\n        }\n\n        return data.lastTaxPayTimestamp;\n    }\n\n    /*\n     * font: Small\n     *  ___     _                     _   ___             _   _             \n     * |_ _|_ _| |_ ___ _ _ _ _  __ _| | | __|  _ _ _  __| |_(_)___ _ _  ___\n     *  | || ' \\  _/ -_) '_| ' \\/ _` | | | _| || | ' \\/ _|  _| / _ \\ ' \\(_-<\n     * |___|_||_\\__\\___|_| |_||_\\__,_|_| |_| \\_,_|_||_\\__|\\__|_\\___/_||_/__/\n     *\n     */\n\n    function _doCollectTax(uint256 adId, uint256 parentId, uint256 actualTax, uint256 totalPayback) internal {\n        uint256 percent = (_customCopyrightRate[adId] == 0) ? DEFAULT_COPYRIGHT_RATE : _customCopyrightRate[adId];\n        uint256 copyrightFee = actualTax.mul(percent).div(PERCENTAGE_BASE);\n        uint256 administrationFee = actualTax.sub(copyrightFee);\n\n        if (copyrightFee > 0) {\n            address parentOwner = ownerOf(parentId);\n            address payable payableParentOwner = address(uint160(parentOwner));\n            if (payableParentOwner != address(0)) {\n                payableParentOwner.transfer(copyrightFee);\n            }\n        }\n\n        if (administrationFee > 0) {\n            taxIncome[adId] = taxIncome[adId].add(administrationFee);\n            allTaxIncome = allTaxIncome.add(administrationFee);\n        }\n        \n        if (totalPayback > 0) {\n            address currentOwner = ownerOf(adId);\n            address payable payableCurrentOwner = address(uint160(currentOwner));\n            payableCurrentOwner.transfer(totalPayback);\n        }\n\n        emit TaxPayEvent(adId, copyrightFee, administrationFee);\n    }\n    /**\n     * @dev Collect the tax for the specified Ad Board\n     * @param adId The id of Ad Board for which to collect tax\n     */\n    function _collectTax(uint256 adId) internal returns (uint256 collected, uint256 owed) {\n        AdBoardData storage data = allAdBoards[adId];\n\n        uint256 taxToPay = _taxOwed(adId, data.price, data.lastTaxPayTimestamp);\n        if (taxToPay == 0) {\n            collected = 0;\n            owed = 0;\n        } else {\n            if (taxToPay >= data.deposit) {\n                collected = data.deposit;\n                owed = taxToPay.sub(collected);\n                data.lastTaxPayTimestamp = dueDate(adId);\n                data.deposit = 0;\n                data.price = 0;\n            } else  {\n                collected = taxToPay;\n                owed = 0;\n                data.lastTaxPayTimestamp = block.timestamp;\n                data.deposit = data.deposit.sub(taxToPay);\n                if (data.deposit <= 0) {\n                    data.price = 0;\n                }\n            }\n        }\n    }\n\n    /**\n     * @dev Tax owed for a specified Ad Board\n     * @param price The price of the Ad Board\n     * @param lastTaxPayTimestamp last time that tax has paid\n     * @return tax owed\n     */\n    function _taxOwed(uint256 adId, uint256 price, uint256 lastTaxPayTimestamp) internal view returns (uint256) {\n        require(price >= 0 && lastTaxPayTimestamp > 0);\n        uint256 taxRate = (_customTaxRate[adId] == 0) ? DEFAULT_TAX_RATE : _customTaxRate[adId];\n        return price.mul(block.timestamp.sub(lastTaxPayTimestamp)).mul(taxRate).div(PERCENTAGE_BASE).div(30 days);\n    }\n    \n    /**\n     * @dev Transfer ownership of a specified Ad Board\n     * @param from current owner of the token\n     * @param to address to receive the ownership of the given token ID\n     * @param adId uint256 ID of the token to be transferred\n     */\n    function _transferAdBoard(address from, address to, uint256 adId) internal {\n        _transferFrom(from, to, adId);\n    }\n}\n\n\n/**\n * font: Small\n *    _      _   ___                   _ \n *   /_\\    /_\\ | _ ) ___  __ _ _ _ __| |\n *  / _ \\  / _ \\| _ \\/ _ \\/ _` | '_/ _` |\n * /_/ \\_\\/_/ \\_\\___/\\___/\\__,_|_| \\__,_|\n *\n */\ncontract AABoard is AABoardImpl {\n\n    /**\n     * @dev Create a NFT Ad Board contract \n     * @param name The name of the NFT.\n     * @param symbol The symbol of the NFT.\n     */\n    constructor (string memory name, string memory symbol) public AABoardImpl(name, symbol) {\n        administrator = msg.sender;\n        createAdBoard(uint256(0), uint256(0), \"Genesis Board\");\n    }\n    \n    /**\n     * @dev Prevent direct money transfer to this contract\n     */\n    function() external payable {\n        require(false);\n    }\n}\n",
  "sourcePath": "/Users/liuya/Projects/DOGi/AdvertisementBoard/frontend/contracts/AABoard.sol",
  "compiler": {
    "name": "solc",
    "version": "0.5.8+commit.23d335f2.Emscripten.clang"
  },
  "schemaVersion": "3.0.11",
  "updatedAt": "2019-08-30T04:10:30.332Z",
  "devdoc": {
    "methods": {
      "addDeposit(uint256)": {
        "details": "Add deposit of an Ad Board. Note that anyone can deposit for this Ad Board.",
        "params": {
          "adId": "id of the Ad Board."
        }
      },
      "balanceOf(address)": {
        "details": "Gets the balance of the specified address",
        "params": {
          "owner": "address to query the balance of"
        },
        "return": "uint256 representing the amount owned by the passed address"
      },
      "buyAdBoard(uint256,uint256,string)": {
        "details": "Buy an Ad Board",
        "params": {
          "adId": "The id of the Ad Board to buy.",
          "content": "The content of the created/forked Ad Board.",
          "price": "The price of the created/forked Ad Board."
        }
      },
      "changeContent(uint256,string)": {
        "details": "Change the content of of an Ad Board",
        "params": {
          "adId": "Id of the Ad Board.",
          "content": "Content to change to"
        }
      },
      "changePrice(uint256,uint256)": {
        "details": "Change the price of of an Ad Board",
        "params": {
          "adId": "Id of the Ad Board.",
          "price": "Price to change to"
        }
      },
      "constructor": {
        "details": "Create a NFT Ad Board contract ",
        "params": {
          "name": "The name of the NFT.",
          "symbol": "The symbol of the NFT."
        }
      },
      "createAdBoard(uint256,uint256,string)": {
        "details": "Create/forked an Ad Board from its parent ",
        "params": {
          "content": "The content of the created/forked Ad Board.",
          "parentId": "The parent id of the created/forked Ad Board.",
          "price": "The desired price of the created/forked Ad Board."
        }
      },
      "depositAbleToWithdraw(uint256)": {
        "details": "Get DepositAble Withdraw of an Ad Board",
        "params": {
          "adId": "id of the Ad Board"
        }
      },
      "dueDate(uint256)": {
        "details": "Get due date of Ad Board",
        "params": {
          "adId": "id of the Ad Board"
        }
      },
      "getAdBoardData(uint256)": {
        "details": "Get AdBoardData of an Ad Board",
        "params": {
          "adId": "id of the Ad Board."
        },
        "return": "data of the Ad Board"
      },
      "getAdBoardIds(address)": {
        "details": "Get all Ad Boards of an owner",
        "params": {
          "owner": "owner."
        },
        "return": "a list of Ad Boards the owner owns"
      },
      "getApproved(uint256)": {
        "details": "Gets the approved address for a token ID, or zero if no address set Reverts if the token ID does not exist.",
        "params": {
          "tokenId": "uint256 ID of the token to query the approval of"
        },
        "return": "address currently approved for the given token ID"
      },
      "isApprovedForAll(address,address)": {
        "details": "Tells whether an operator is approved by a given owner",
        "params": {
          "operator": "operator address which you want to query the approval of",
          "owner": "owner address which you want to query the approval of"
        },
        "return": "bool whether the given operator is approved by the given owner"
      },
      "name()": {
        "details": "Gets the token name",
        "return": "string representing the token name"
      },
      "ownerOf(uint256)": {
        "details": "Gets the owner of the specified token ID",
        "params": {
          "tokenId": "uint256 ID of the token to query the owner of"
        },
        "return": "address currently marked as the owner of the given token ID"
      },
      "pause()": {
        "details": "called by the owner to pause, triggers stopped state"
      },
      "paused()": {
        "return": "true if the contract is paused, false otherwise."
      },
      "safeTransferFrom(address,address,uint256)": {
        "details": "Safely transfers the ownership of a given token ID to another address If the target address is a contract, it must implement `onERC721Received`, which is called upon a safe transfer, and return the magic value `bytes4(keccak256(\"onERC721Received(address,address,uint256,bytes)\"))`; otherwise, the transfer is reverted. Requires the msg.sender to be the owner, approved, or operator",
        "params": {
          "from": "current owner of the token",
          "to": "address to receive the ownership of the given token ID",
          "tokenId": "uint256 ID of the token to be transferred"
        }
      },
      "safeTransferFrom(address,address,uint256,bytes)": {
        "details": "Safely transfers the ownership of a given token ID to another address If the target address is a contract, it must implement `onERC721Received`, which is called upon a safe transfer, and return the magic value `bytes4(keccak256(\"onERC721Received(address,address,uint256,bytes)\"))`; otherwise, the transfer is reverted. Requires the msg.sender to be the owner, approved, or operator",
        "params": {
          "_data": "bytes data to send along with a safe transfer check",
          "from": "current owner of the token",
          "to": "address to receive the ownership of the given token ID",
          "tokenId": "uint256 ID of the token to be transferred"
        }
      },
      "setAdministrationRate(uint256,uint256)": {
        "details": "Set custom administration tax rate of a specified Ad Board or DEFAULT_ADMINISTRATION_RATE will be used",
        "params": {
          "adId": "The id of the Ad Board to buy.",
          "rate": "Tax rate"
        }
      },
      "setCopyrightRate(uint256,uint256)": {
        "details": "Set custom copyright tax rate of a specified Ad Board or DEFAULT_COPYRIGHT_RATE will be used",
        "params": {
          "adId": "The id of the Ad Board to buy.",
          "rate": "Tax rate"
        }
      },
      "setTaxRate(uint256,uint256)": {
        "details": "Set custom tax rate of a specified Ad Board or DEFAULT_TAX_RATE will be used",
        "params": {
          "adId": "The id of the Ad Board to buy.",
          "rate": "Tax rate"
        }
      },
      "supportsInterface(bytes4)": {
        "details": "implement supportsInterface(bytes4) using a lookup table"
      },
      "symbol()": {
        "details": "Gets the token symbol",
        "return": "string representing the token symbol"
      },
      "tokenByIndex(uint256)": {
        "details": "Gets the token ID at a given index of all the tokens in this contract Reverts if the index is greater or equal to the total number of tokens",
        "params": {
          "index": "uint256 representing the index to be accessed of the tokens list"
        },
        "return": "uint256 token ID at the given index of the tokens list"
      },
      "tokenOfOwnerByIndex(address,uint256)": {
        "details": "Gets the token ID at a given index of the tokens list of the requested owner",
        "params": {
          "index": "uint256 representing the index to be accessed of the requested tokens list",
          "owner": "address owning the tokens list to be accessed"
        },
        "return": "uint256 token ID at the given index of the tokens list owned by the requested address"
      },
      "tokenURI(uint256)": {
        "details": "Returns an URI for a given token ID Throws if the token ID does not exist. May return an empty string.",
        "params": {
          "tokenId": "uint256 ID of the token to query"
        }
      },
      "totalSupply()": {
        "details": "Gets the total amount of tokens stored by the contract",
        "return": "uint256 representing the total amount of tokens"
      },
      "unpause()": {
        "details": "called by the owner to unpause, returns to normal state"
      },
      "withdrawDeposit(uint256,uint256)": {
        "details": "Withdraw deposit of an Ad Board",
        "params": {
          "adId": "id of the Ad Board.",
          "amount": "amount to withdraw"
        }
      },
      "withdrawTaxIncome()": {
        "details": "Withdraw all the tax income"
      }
    }
  },
  "userdoc": {
    "methods": {},
    "notice": "font: Small   _      _   ___                   _   /_\\    /_\\ | _ ) ___  __ _ _ _ __| | / _ \\  / _ \\| _ \\/ _ \\/ _` | '_/ _` | /_/ \\_\\/_/ \\_\\___/\\___/\\__,_|_| \\__,_| "
  }
}